S01A0000474C4F574E595F50617A647A6965726E696B2E7372656340
S11300000C942A000C9447000C9447000C9447006D
S11300100C94D6000C9447000C9447000C940301F4
S11300200C9447000C9447000C948F000C944700E8
S11300300C9447000C9447000C9447000C94470020
S11300400C9447000C9447000C9447000C94470010
S11300500C94470011241FBECFE5D8E0DEBFCDBF0E
S113006010E0A0E6B0E0E4EEF5E002C005900D92E9
S1130070AA37B107D9F720E0AAE7B0E001C01D9282
S1130080AC39B207E1F70E9470010C94F0020C94B1
S1130090000010927B00DC01ECE7F0E090E08D9131
S11300A081939F5F90937B009531C9F7089583B73F
S11300B0836083BF089583B78E7F83BF83B78D7FAB
S11300C083BF83B78B7F83BF089583B7886083BF63
S11300D00E945B0089B7826089BF8DE78CBF089559
S11300E08EB582608EBD08958EB58E7F8EBD8EB521
S11300F08D7F8EBD8EB58B7F8EBD08958EB5886045
S11301008EBD0E94740089B7806189BF80E69DE638
S11301109BBD8ABD089585B5846085BD08951F92F1
S11301200F920FB60F9211242F933F934F935F9327
S11301306F937F938F939F93AF93BF93EF93FF93AB
S1130140E0917A00F0E0E458FF4F808188BB0E9480
S11301508B000E945B0080917A008F5F80937A000D
S1130160FF91EF91BF91AF919F918F917F916F918B
S11301705F914F913F912F910F900FBE0F901F9061
S1130180189585B58E7F85BD85B58D7F85BD85B573
S11301908B7F85BD089585B5886085BD0E94C100AB
S11301A089B7806889BF88E383BD08951F920F9241
S11301B00FB60F9211242F933F934F935F936F9336
S11301C07F938F939F93AF93BF93EF93FF9318BA4B
S11301D00E94C1000E945700FF91EF91BF91AF911F
S11301E09F918F917F916F915F914F913F912F914B
S11301F00F900FBE0F901F9018958FEF87BB18BA02
S113020010927A0008951F920F920FB60F92112444
S11302102F933F934F935F936F937F938F939F930A
S1130220AF93BF93EF93FF9318BA0E9465000E94A7
S11302307E000E94CB000E94FD0010927A00FF9184
S1130240EF91BF91AF919F918F917F916F915F914A
S11302504F913F912F910F900FBE0F901F901895C3
S113026085BBDE98DF9A8FE19EE40197F1F700C029
S11302700000DF98089585BBDE9ADF9A8FE19EE443
S11302800197F1F700C00000DF9808958FEF84BB59
S11302908ABB88E30E9430018EE00E94300186E030
S11302A00E94300181E00E94300180E80E94300108
S11302B00895CF93DF93EC018881882331F0219650
S11302C00E943B0189918111FBCFDF91CF91089569
S11302D090E4699F800D112480680E943001089584
S11302E0CF93DF93CDB7DEB764970FB6F894DEBF34
S11302F00FBECDBFCE01019624E1FC0111922A95D7
S1130300E9F721E02A83288BFFE728E331E0F15065
S113031020403040E1F700C0000078940E9449007A
S11303200E94FD000E94EC020E9446010E946500AA
S11303300E947E000E94CB0060E080E00E94680181
S113034080E690E00E94590160E087E00E94680125
S113035080919300805D0E943B0180919700805DB5
S11303600E943B0180919A00805D0E943B01809134
S11303709000805D0E943B010F2EF4E67F2EF02D4D
S11303800F2EF1E64F2EF02D0F2EF2E65F2EF02DFC
S11303900F2EF3E66F2EF02DCE0101966C0101E0D5
S11303A0A42CB52CE62C882E9D2CF72C809195003E
S11303B081110DC080990EC0009395001B8A602F97
S11303C00E94680188E690E00E94590103C0809968
S11303D0109295008091990081110DC0809B0EC0F0
S11303E0009399000B8B602F0E94680180E790E0D6
S11303F00E94590103C0809B109299008091920041
S1130400811106C081990BC0009392001A2D0AC075
S1130410819B07C08F5F8093920010E003C010E0BF
S113042001C010E080919100811106C0829909C039
S1130430009391001B2D05C0829B03C08F5F8093A6
S1130440910080919B00811106C0839909C000939B
S11304509B001E2D05C0839B03C08F5F80939B0070
S113046080919600811106C0849909C0009396007A
S11304701F2D05C0849B03C08F5F809396008091DD
S1130480980081110DC0859910C000939800882DA3
S1130490992D0E9449000E948B000E94700005C0A3
S11304A0859B03C08F5F80939800112309F47ECF4E
S11304B01136B1F4809193000E94E6028093930078
S11304C0482D592D682F842D0E94B80260E087E0E2
S11304D00E94680180919300805D0E943B0130C0BE
S11304E01236B1F4809197000E94E602809397003F
S11304F0482D592D682F852D0E94B80260E088E0B0
S11305000E94680180919700805D0E943B014ECF5C
S11305101336B1F480919A000E94E60280939A0007
S1130520482D592D682F862D0E94B80260E089E07D
S11305300E94680180919A00805D0E943B0136CF41
S1130540143609F033CF809190000E94E602809324
S11305509000A601682F872D0E94B80260E08AE00F
S11305600E94680180919000805D0E943B011DCF34
S1130570962F9170262F30E0291B31092370307893
S1130580332334F4215031092C6F3F6F2F5F3F4FD9
S113059031E0211101C030E06770621B21E0691372
S11305A001C020E08F7D823421F0833439F063E090
S11305B001C069E0843419F46AE001C062E0FA0120
S11305C0E60FF11D9083328324830895873010F45D
S11305D08F5F089580E0089582B38F6382BB08958E
S10705E0F894FFCFB9
S11305E453515541574B3A00535049204F46460006
S10D05F4535049204F4E2020000010
S9030000FC
